:020000040800F2
:1000000018040020D9050008E1050008E3050008F0
:10001000E5050008E7050008E90500080000000004
:10002000000000000000000000000000EB050008D8
:10003000ED05000800000000EF0500089D01000824
:10004000F3050008F3050008F3050008F3050008B0
:10005000F3050008F3050008F3050008F3050008A0
:10006000F3050008F3050008F3050008F305000890
:10007000F3050008F3050008F3050008F305000880
:10008000F3050008F3050008F3050008F305000870
:10009000F3050008F3050008F3050008F305000860
:1000A000F3050008F3050008F3050008F305000850
:1000B000F3050008F3050008F3050008F305000840
:1000C000F3050008F3050008F3050008F305000830
:1000D000F3050008F3050008F3050008F305000820
:1000E000F3050008F3050008F3050008F305000810
:1000F000F3050008F3050008F3050008F305000800
:10010000F3050008F3050008F3050008F3050008EF
:10011000F3050008F3050008F3050008F3050008DF
:10012000F3050008F3050008F3050008F3050008CF
:10013000F3050008F3050008F3050008F3050008BF
:10014000F3050008F3050008F3050008F3050008AF
:10015000F3050008F3050008F3050008F30500089F
:10016000F3050008F3050008F3050008F30500088F
:10017000F3050008F3050008F3050008F30500087F
:10018000F3050008F3050008DFF80CD000F058FB79
:1001900000480047BB0100081804002038480068E8
:1001A000401C374908607047354A116800BF344A1F
:1001B0001268521A8242FAD3704700F000F90546DD
:1001C0004FF0FF340126002700F098F92D48006811
:1001D0004FF47A72B0FBF2F1481EB0F1807F01D388
:1001E000012020E0481E4FF0E022506150170F22FE
:1001F00000280ADA13074FEA1368234B00F00F0CAC
:10020000ACF1040C03F80C8005E013074FEA136C03
:100210001E4B03F800C000BF00204FF0E0229061A9
:1002200007201061002008B100BFFEE700F050F881
:1002300000F02EF822E000F03CF80746012F17D01E
:100240003444AC4203D14FF0FF366C1E03E0002C67
:1002500001DA01260024204600F07AF83220FFF768
:10026000A3FF204600F086F8C820FFF79DFF05E0B9
:100270000F2000F091F80A20FFF796FFDBE700005F
:10028000000000200400002018ED00E000E400E081
:100290001CB501210D4800F0B1F9002001210346F1
:1002A0000246CDE900100146084800F05DFA1CBD89
:1002B000704700200021054A1269CA4002F001027D
:1002C0000AB140F001007047012070470000024071
:1002D0001CB5002424E03B4951F83400012100F012
:1002E0008DF9384B53F8340003EBC403197900221D
:1002F0001AB101238B40038302E001238B40438327
:1003000000BF022000902F4A02EBC4020190117935
:100310002C4A52F834000023012200F025FA641C14
:10032000042CD8D31CBD1CB500240EE00020009086
:10033000244A02EBC40201901179224A52F8340097
:1003400000231A4600F010FA641C042CEED31CBDE6
:1003500010B51C4C54F8301004EBC0042279012372
:100360001BB1012494400C8302E0012494404C838F
:1003700000BF10BD10B5134C54F8301004EBC0048E
:10038000227900231BB1012494400C8302E0012454
:1003900094404C8300BF10BD30B5054600240BE0EF
:1003A0000120A040284018B12046FFF7D1FF02E00D
:1003B0002046FFF7DFFF641C042CF1D330BD04207E
:1003C00070470000840800080CB5002001900090E0
:1003D0007648006840F480307449086000BF734874
:1003E000006800F4003000900198401C01900098D3
:1003F00018B90198B0F5A04FF1D16C48006800F42D
:10040000003010B10120009001E000200090009821
:10041000012846D165484030006840F0805063496B
:10042000403108606248006840F44040604908601C
:100430005E48083000685D49083108600846006879
:1004400040F4004008600846006840F4A05008608E
:100450005848091F0860081F006840F08070091F95
:10046000086000BF5148006800F000700028F9D013
:1004700040F20570504908604C480830006820F090
:1004800003004A49083108600846006840F002004D
:10049000086000BF45480830006800F00C000828DC
:1004A000F8D10CBD10B54548006840F470004349D0
:1004B00008603E48006840F001003C4908600020A8
:1004C0003A4908310860394800683D4908403749D1
:1004D00008603C48091D0860081F006820F480205F
:1004E000091F0860002031490C310860FFF76CFFDC
:1004F0004FF0006031498039086010BD70B50020B0
:100500000022022300240221284D08352D6805F021
:100510000C0020B1042806D0082834D107E02A4D69
:100520002A4E356033E02A4D284E35602FE01F4DAE
:100530002D1D2D68C5F380541C4D2D1D2D6805F013
:100540003F0154B1224DB5FBF1F5184E361D36680A
:10055000C6F3881605FB06F209E01B4DB5FBF1F565
:10056000124E361D3668C6F3881605FB06F20F4D8F
:100570002D1D2D68C5F301456D1C6B00B2FBF3F515
:10058000124E356003E0104D104E356000BF00BFC5
:10059000064D08352D68C5F303150E4E705D0B4DE5
:1005A0002D68C540094E356070BD0000003802401E
:1005B0000070004008544007003C024088ED00E015
:1005C000FFFFF6FE103000240024F4000400002099
:1005D00000127A00080000200648804706480047BD
:1005E000FEE7FEE7FEE7FEE7FEE7FEE7FEE7FEE7E3
:1005F000FEE7FEE7A504000889010008002959D09C
:10060000854A904206D1854A126842F00102834B26
:100610001A60A8E0824A904206D1804A126842F0ED
:1006200002027E4B1A609EE07E4A904206D17B4ACF
:10063000126842F00402794B1A6094E07A4A9042C0
:1006400006D1764A126842F00802744B1A608AE0BA
:10065000764A904206D1714A126842F010026F4BFE
:100660001A6080E0724A904206D16C4A126842F0E9
:1006700020026A4B1A6076E06E4A904206D1674AC1
:10068000126842F04002654B1A606CE06A4A904280
:1006900006D1624A126842F08002604B1A6062E042
:1006A000664A90425FD15D4A126842F480725B4BA9
:1006B0001A6058E0584A904206D1584A126822F00F
:1006C0000102564B1A604EE0554A904206D1534AF9
:1006D000126822F00202514B1A6044E0514A9042E3
:1006E00006D14E4A126822F004024C4B1A603AE0DE
:1006F0004D4A904206D1494A126822F00802474BFF
:100700001A6030E0494A904206D1444A126822F009
:100710001002424B1A6026E0454A904206D13F4AF9
:10072000126822F020023D4B1A601CE0414A9042C0
:1007300006D13A4A126822F04002384B1A6012E0A1
:100740003D4A904206D1354A126822F08002334B6E
:100750001A6008E0394A904205D1304A126822F402
:1007600080722E4B1A607047F0B50446DDE90556DD
:10077000102901D30020F0BD20684FEA410C032767
:1007800007FA0CF7B8434F0002FA07F73843206026
:1007900067680120884027EA000003FA01F7384320
:1007A0006060A0684FEA410C032707FA0CF7B843D2
:1007B0004F0005FA07F73843A060E0684FEA410CA4
:1007C000032707FA0CF7B8434F0006FA07F7384338
:1007D000E0600120CFE730B50346102901D30020A7
:1007E00030BD08290BD30839586A8D000F24AC405E
:1007F000A0438C0002FA04F42043586209E0186A0E
:100800008D000F24AC40A0438C0002FA04F4204376
:1008100018620120E4E70000000002403038024086
:100820000004024000080240000C02400010024098
:100830000014024000180240001C02400020024048
:10084000064C074D06E0E06840F0010394E807001D
:1008500098471034AC42F6D3FFF79AFCA40800087E
:10086000C408000802E008C8121F08C1002AFAD113
:1008700070477047002001E001C1121F002AFBD120
:1008800070470000000C02400C000000000C024009
:100890000D000000000C02400E000000000C0240A1
:1008A0000F000000C408000800000020180000002D
:1008B00064080008DC08000818000020000400009C
:1008C0007408000800000000007A030A000000001D
:0C08D000000000000102030406070809F4
:040000050800018965
:00000001FF
